{
  "contractName": "MarchMadness",
  "abi": [
    {
      "constant": true,
      "inputs": [],
      "name": "EntryFee",
      "outputs": [
        {
          "name": "",
          "type": "uint256"
        }
      ],
      "payable": false,
      "stateMutability": "view",
      "type": "function"
    },
    {
      "constant": true,
      "inputs": [],
      "name": "PoolFee",
      "outputs": [
        {
          "name": "",
          "type": "uint256"
        }
      ],
      "payable": false,
      "stateMutability": "view",
      "type": "function"
    },
    {
      "constant": true,
      "inputs": [],
      "name": "SalesCommission",
      "outputs": [
        {
          "name": "",
          "type": "uint256"
        }
      ],
      "payable": false,
      "stateMutability": "view",
      "type": "function"
    },
    {
      "inputs": [
        {
          "name": "poolFee",
          "type": "uint256"
        },
        {
          "name": "lockBracketsAfter",
          "type": "uint256"
        },
        {
          "name": "entryFee",
          "type": "uint256"
        },
        {
          "name": "salesCommission",
          "type": "uint16"
        }
      ],
      "payable": false,
      "stateMutability": "nonpayable",
      "type": "constructor"
    },
    {
      "payable": true,
      "stateMutability": "payable",
      "type": "fallback"
    },
    {
      "anonymous": false,
      "inputs": [
        {
          "indexed": false,
          "name": "oldOwner",
          "type": "address"
        },
        {
          "indexed": false,
          "name": "newOwner",
          "type": "address"
        }
      ],
      "name": "OwnershipUpdated",
      "type": "event"
    },
    {
      "anonymous": false,
      "inputs": [
        {
          "indexed": false,
          "name": "payee",
          "type": "address"
        },
        {
          "indexed": false,
          "name": "payer",
          "type": "address"
        },
        {
          "indexed": true,
          "name": "paidCode",
          "type": "uint8"
        }
      ],
      "name": "PaymentMade",
      "type": "event"
    },
    {
      "anonymous": false,
      "inputs": [
        {
          "indexed": false,
          "name": "attemptedPayee",
          "type": "address"
        },
        {
          "indexed": true,
          "name": "errCode",
          "type": "uint8"
        },
        {
          "indexed": false,
          "name": "errReason",
          "type": "string"
        }
      ],
      "name": "PaymentError",
      "type": "event"
    },
    {
      "anonymous": false,
      "inputs": [
        {
          "indexed": false,
          "name": "entrant",
          "type": "address"
        },
        {
          "indexed": true,
          "name": "errCode",
          "type": "uint8"
        },
        {
          "indexed": false,
          "name": "errReason",
          "type": "string"
        }
      ],
      "name": "BracketError",
      "type": "event"
    },
    {
      "anonymous": false,
      "inputs": [
        {
          "indexed": false,
          "name": "errParty",
          "type": "address"
        },
        {
          "indexed": true,
          "name": "errCode",
          "type": "uint8"
        },
        {
          "indexed": false,
          "name": "errReason",
          "type": "string"
        }
      ],
      "name": "SaleError",
      "type": "event"
    },
    {
      "anonymous": false,
      "inputs": [
        {
          "indexed": false,
          "name": "owner",
          "type": "address"
        },
        {
          "indexed": true,
          "name": "poolId",
          "type": "uint256"
        },
        {
          "indexed": false,
          "name": "fee",
          "type": "uint256"
        }
      ],
      "name": "PoolCreated",
      "type": "event"
    },
    {
      "anonymous": false,
      "inputs": [
        {
          "indexed": false,
          "name": "owner",
          "type": "address"
        },
        {
          "indexed": true,
          "name": "poolId",
          "type": "uint256"
        },
        {
          "indexed": false,
          "name": "bracket",
          "type": "bytes32"
        }
      ],
      "name": "BracketCreated",
      "type": "event"
    },
    {
      "anonymous": false,
      "inputs": [
        {
          "indexed": false,
          "name": "donor",
          "type": "address"
        },
        {
          "indexed": false,
          "name": "amountDonated",
          "type": "uint256"
        }
      ],
      "name": "DonationReceived",
      "type": "event"
    },
    {
      "anonymous": false,
      "inputs": [
        {
          "indexed": false,
          "name": "donor",
          "type": "address"
        },
        {
          "indexed": false,
          "name": "amountRefunded",
          "type": "uint256"
        },
        {
          "indexed": false,
          "name": "donationLeft",
          "type": "uint256"
        }
      ],
      "name": "DonationRefunded",
      "type": "event"
    },
    {
      "constant": false,
      "inputs": [
        {
          "name": "newAdmin",
          "type": "address"
        }
      ],
      "name": "addAdmin",
      "outputs": [],
      "payable": false,
      "stateMutability": "nonpayable",
      "type": "function"
    },
    {
      "constant": false,
      "inputs": [
        {
          "name": "removedAdmin",
          "type": "address"
        }
      ],
      "name": "removeAdmin",
      "outputs": [],
      "payable": false,
      "stateMutability": "nonpayable",
      "type": "function"
    },
    {
      "constant": false,
      "inputs": [
        {
          "name": "newFee",
          "type": "uint256"
        }
      ],
      "name": "updateEntryFee",
      "outputs": [],
      "payable": false,
      "stateMutability": "nonpayable",
      "type": "function"
    },
    {
      "constant": false,
      "inputs": [
        {
          "name": "newFee",
          "type": "uint256"
        }
      ],
      "name": "updatePoolFee",
      "outputs": [],
      "payable": false,
      "stateMutability": "nonpayable",
      "type": "function"
    },
    {
      "constant": false,
      "inputs": [
        {
          "name": "newFee",
          "type": "uint256"
        }
      ],
      "name": "updateSalesCommission",
      "outputs": [],
      "payable": false,
      "stateMutability": "nonpayable",
      "type": "function"
    },
    {
      "constant": true,
      "inputs": [],
      "name": "secondsUntilLock",
      "outputs": [
        {
          "name": "secondsLeft",
          "type": "uint256"
        }
      ],
      "payable": false,
      "stateMutability": "view",
      "type": "function"
    },
    {
      "constant": true,
      "inputs": [],
      "name": "getContractValue",
      "outputs": [
        {
          "name": "",
          "type": "uint256"
        }
      ],
      "payable": false,
      "stateMutability": "view",
      "type": "function"
    },
    {
      "constant": false,
      "inputs": [
        {
          "name": "withdrawTo",
          "type": "address"
        },
        {
          "name": "amount",
          "type": "uint256"
        }
      ],
      "name": "withdrawFunds",
      "outputs": [
        {
          "name": "",
          "type": "bool"
        }
      ],
      "payable": false,
      "stateMutability": "nonpayable",
      "type": "function"
    },
    {
      "constant": false,
      "inputs": [
        {
          "name": "pool",
          "type": "uint16"
        },
        {
          "name": "fee",
          "type": "uint256"
        }
      ],
      "name": "createPool",
      "outputs": [],
      "payable": true,
      "stateMutability": "payable",
      "type": "function"
    },
    {
      "constant": true,
      "inputs": [
        {
          "name": "pool",
          "type": "uint16"
        }
      ],
      "name": "getPoolValueInEth",
      "outputs": [
        {
          "name": "",
          "type": "uint256"
        }
      ],
      "payable": false,
      "stateMutability": "view",
      "type": "function"
    },
    {
      "constant": false,
      "inputs": [
        {
          "name": "bracket",
          "type": "bytes32"
        },
        {
          "name": "poolId",
          "type": "uint16"
        }
      ],
      "name": "createBracket",
      "outputs": [],
      "payable": true,
      "stateMutability": "payable",
      "type": "function"
    },
    {
      "constant": false,
      "inputs": [
        {
          "name": "bracket",
          "type": "bytes32"
        }
      ],
      "name": "updateBracket",
      "outputs": [],
      "payable": false,
      "stateMutability": "nonpayable",
      "type": "function"
    },
    {
      "constant": false,
      "inputs": [
        {
          "name": "winner",
          "type": "address"
        },
        {
          "name": "pool",
          "type": "uint16"
        },
        {
          "name": "bracket",
          "type": "bytes32"
        }
      ],
      "name": "payWinner",
      "outputs": [
        {
          "name": "",
          "type": "bool"
        }
      ],
      "payable": true,
      "stateMutability": "payable",
      "type": "function"
    }
  ],
  "bytecode": "0x6060604052341561000f57600080fd5b6040516080806118bf833981016040528080519060200190919080519060200190919080519060200190919080519060200190919050506001600560003373ffffffffffffffffffffffffffffffffffffffff1673ffffffffffffffffffffffffffffffffffffffff16815260200190815260200160002060006101000a81548160ff02191690831515021790555083600381905550816002819055508061ffff166004819055508242016001819055507f4c19d31874b3f8325813d90efdd10758f703ab99b84367f07276ecd2cd69c95d60008060009054906101000a900473ffffffffffffffffffffffffffffffffffffffff16604051808373ffffffffffffffffffffffffffffffffffffffff1681526020018273ffffffffffffffffffffffffffffffffffffffff1673ffffffffffffffffffffffffffffffffffffffff1681526020019250505060405180910390a150505050611749806101766000396000f3006060604052600436106100e6576000357c0100000000000000000000000000000000000000000000000000000000900463ffffffff1680631785f53c146101b057806322217184146101e95780632b2c285c1461021057806341f077871461024b57806359fe8c84146102ab57806370480275146102d4578063aa1826261461030d578063b482c31414610330578063b8ff642a14610359578063c10753291461037e578063c2cac04b146103d8578063d853c269146103fb578063dc82697c1461041e578063e1c5af5b14610447578063ebc71b2a14610470578063fd17651014610499575b34600d60003373ffffffffffffffffffffffffffffffffffffffff1673ffffffffffffffffffffffffffffffffffffffff1681526020019081526020016000206000828254019250508190555034600c600082825401925050819055507f264f630d9efa0d07053a31163641d9fcc0adafc9d9e76f1c37c2ce3a558d2c523334604051808373ffffffffffffffffffffffffffffffffffffffff1673ffffffffffffffffffffffffffffffffffffffff1681526020018281526020019250505060405180910390a1005b34156101bb57600080fd5b6101e7600480803573ffffffffffffffffffffffffffffffffffffffff169060200190919050506104c2565b005b34156101f457600080fd5b61020e6004808035600019169060200190919050506105b7565b005b341561021b57600080fd5b610235600480803561ffff16906020019091905050610674565b6040518082815260200191505060405180910390f35b610291600480803573ffffffffffffffffffffffffffffffffffffffff1690602001909190803561ffff16906020019091908035600019169060200190919050506106ac565b604051808215151515815260200191505060405180910390f35b34156102b657600080fd5b6102be610b61565b6040518082815260200191505060405180910390f35b34156102df57600080fd5b61030b600480803573ffffffffffffffffffffffffffffffffffffffff16906020019091905050610b67565b005b341561031857600080fd5b61032e6004808035906020019091905050610c47565b005b61035760048080356000191690602001909190803561ffff16906020019091905050610cb0565b005b61037c600480803561ffff16906020019091908035906020019091905050611082565b005b341561038957600080fd5b6103be600480803573ffffffffffffffffffffffffffffffffffffffff169060200190919080359060200190919050506112b6565b604051808215151515815260200191505060405180910390f35b34156103e357600080fd5b6103f96004808035906020019091905050611541565b005b341561040657600080fd5b61041c60048080359060200190919050506115aa565b005b341561042957600080fd5b610431611613565b6040518082815260200191505060405180910390f35b341561045257600080fd5b61045a611691565b6040518082815260200191505060405180910390f35b341561047b57600080fd5b610483611697565b6040518082815260200191505060405180910390f35b34156104a457600080fd5b6104ac6116a3565b6040518082815260200191505060405180910390f35b60011515600560003373ffffffffffffffffffffffffffffffffffffffff1673ffffffffffffffffffffffffffffffffffffffff16815260200190815260200160002060009054906101000a900460ff16151514151561052157600080fd5b8073ffffffffffffffffffffffffffffffffffffffff163373ffffffffffffffffffffffffffffffffffffffff161415151561055c57600080fd5b6000600560008373ffffffffffffffffffffffffffffffffffffffff1673ffffffffffffffffffffffffffffffffffffffff16815260200190815260200160002060006101000a81548160ff02191690831515021790555050565b60015442111515156105c857600080fd5b6000600960003373ffffffffffffffffffffffffffffffffffffffff1673ffffffffffffffffffffffffffffffffffffffff16815260200190815260200160002060009054906101000a900461ffff1661ffff161415151561062957600080fd5b80600a60003373ffffffffffffffffffffffffffffffffffffffff1673ffffffffffffffffffffffffffffffffffffffff168152602001908152602001600020816000191690555050565b6000670de0b6b3a7640000600760008461ffff1661ffff168152602001908152602001600020548115156106a457fe5b049050919050565b600060011515600560003373ffffffffffffffffffffffffffffffffffffffff1673ffffffffffffffffffffffffffffffffffffffff16815260200190815260200160002060009054906101000a900460ff16151514151561070d57600080fd5b8261071833826116a9565b151561072357600080fd5b6000600102836000191614156107e5576001600881111561074057fe5b7f156d6cb6cc34f6b31e5be69ffcef53ed6792ac9fd0577d597fc504cb839fe04286604051808273ffffffffffffffffffffffffffffffffffffffff1673ffffffffffffffffffffffffffffffffffffffff16815260200180602001828103825260208152602001807f4e6f20427261636b65742050617373656420666f722056616c69646174696f6e8152506020019250505060405180910390a260009150610b59565b8260001916600a60008773ffffffffffffffffffffffffffffffffffffffff1673ffffffffffffffffffffffffffffffffffffffff168152602001908152602001600020546000191614151561090d576002600881111561084257fe5b7f156d6cb6cc34f6b31e5be69ffcef53ed6792ac9fd0577d597fc504cb839fe04286604051808273ffffffffffffffffffffffffffffffffffffffff1673ffffffffffffffffffffffffffffffffffffffff16815260200180602001828103825260258152602001807f46696e616c20616e64205375626d697474656420427261636b6574204e6f742081526020017f457175616c0000000000000000000000000000000000000000000000000000008152506040019250505060405180910390a260009150610b59565b6000600660008661ffff1661ffff1681526020019081526020016000205414156109e3576003600881111561093e57fe5b7f156d6cb6cc34f6b31e5be69ffcef53ed6792ac9fd0577d597fc504cb839fe04286604051808273ffffffffffffffffffffffffffffffffffffffff1673ffffffffffffffffffffffffffffffffffffffff16815260200180602001828103825260168152602001807f506f6f6c2056616c756520477265617465725468616e000000000000000000008152506020019250505060405180910390a260009150610b59565b6000600660008661ffff1661ffff16815260200190815260200160002054111515610a0d57600080fd5b8473ffffffffffffffffffffffffffffffffffffffff166108fc600660008761ffff1661ffff168152602001908152602001600020549081150290604051600060405180830381858888f193505050501515610a6857600080fd5b60016002811115610a7557fe5b7faedc5f32e63067eb22e3246102cbba5b30f2e81f6369274b60a485771c8d99d58630604051808373ffffffffffffffffffffffffffffffffffffffff1673ffffffffffffffffffffffffffffffffffffffff1681526020018273ffffffffffffffffffffffffffffffffffffffff1673ffffffffffffffffffffffffffffffffffffffff1681526020019250505060405180910390a2600660008561ffff1661ffff16815260200190815260200160002054600b600082825403925050819055506000600660008661ffff1661ffff168152602001908152602001600020819055505b509392505050565b60025481565b60011515600560003373ffffffffffffffffffffffffffffffffffffffff1673ffffffffffffffffffffffffffffffffffffffff16815260200190815260200160002060009054906101000a900460ff161515141515610bc657600080fd5b60008173ffffffffffffffffffffffffffffffffffffffff1614151515610bec57600080fd5b6001600560008373ffffffffffffffffffffffffffffffffffffffff1673ffffffffffffffffffffffffffffffffffffffff16815260200190815260200160002060006101000a81548160ff02191690831515021790555050565b60011515600560003373ffffffffffffffffffffffffffffffffffffffff1673ffffffffffffffffffffffffffffffffffffffff16815260200190815260200160002060009054906101000a900460ff161515141515610ca657600080fd5b8060028190555050565b6000806001544211151515610cc457600080fd5b600660008461ffff1661ffff168152602001908152602001600020549150600760008461ffff1661ffff1681526020019081526020016000205490506002548201341015610dba5760056008811115610d1957fe5b7f0f4531696630861df22650631bf36036c50df3ef335e656c939c49962ef9f54433604051808273ffffffffffffffffffffffffffffffffffffffff1673ffffffffffffffffffffffffffffffffffffffff168152602001806020018281038252601a8152602001807f506f6f6c20616e6420456e74727920666565206e6f74206d65740000000000008152506020019250505060405180910390a261107c565b808282011015610e985760066008811115610dd157fe5b7f0f4531696630861df22650631bf36036c50df3ef335e656c939c49962ef9f54433604051808273ffffffffffffffffffffffffffffffffffffffff1673ffffffffffffffffffffffffffffffffffffffff168152602001806020018281038252602c8152602001807f506f6f6c2076616c756520776f756c64206f766572666c6f772077697468206d81526020017f6f726520627261636b65747300000000000000000000000000000000000000008152506040019250505060405180910390a261107c565b82600960003373ffffffffffffffffffffffffffffffffffffffff1673ffffffffffffffffffffffffffffffffffffffff16815260200190815260200160002060006101000a81548161ffff021916908361ffff16021790555083600a60003373ffffffffffffffffffffffffffffffffffffffff1673ffffffffffffffffffffffffffffffffffffffff16815260200190815260200160002081600019169055506002543403600b6000828254019250508190555081600760008561ffff1661ffff16815260200190815260200160002060008282540192505081905550600960003373ffffffffffffffffffffffffffffffffffffffff1673ffffffffffffffffffffffffffffffffffffffff16815260200190815260200160002060009054906101000a900461ffff1661ffff167f1b1de71f3b6a5bdcf1154e22e6f2c40d9f0a7af01f81c35400d345d0e693459733600a60003373ffffffffffffffffffffffffffffffffffffffff1673ffffffffffffffffffffffffffffffffffffffff16815260200190815260200160002054604051808373ffffffffffffffffffffffffffffffffffffffff1673ffffffffffffffffffffffffffffffffffffffff16815260200182600019166000191681526020019250505060405180910390a25b50505050565b600154421115151561109357600080fd5b60035434101561117157600460088111156110aa57fe5b7f156d6cb6cc34f6b31e5be69ffcef53ed6792ac9fd0577d597fc504cb839fe04233604051808273ffffffffffffffffffffffffffffffffffffffff1673ffffffffffffffffffffffffffffffffffffffff16815260200180602001828103825260278152602001807f496e73756666696369656e742066656520746f20636f76657220706f6f6c206381526020017f72656174696f6e000000000000000000000000000000000000000000000000008152506040019250505060405180910390a26112b2565b80600660008461ffff1661ffff1681526020019081526020016000208190555033600860008461ffff1661ffff16815260200190815260200160002060006101000a81548173ffffffffffffffffffffffffffffffffffffffff021916908373ffffffffffffffffffffffffffffffffffffffff1602179055508161ffff167f620f7d92e94f37e846b7a037fa45c886f3ab726b58c6531813825a47ad4eec50600860008561ffff1661ffff16815260200190815260200160002060009054906101000a900473ffffffffffffffffffffffffffffffffffffffff16600660008661ffff1661ffff16815260200190815260200160002054604051808373ffffffffffffffffffffffffffffffffffffffff1673ffffffffffffffffffffffffffffffffffffffff1681526020018281526020019250505060405180910390a25b5050565b600060011515600560003373ffffffffffffffffffffffffffffffffffffffff1673ffffffffffffffffffffffffffffffffffffffff16815260200190815260200160002060009054906101000a900460ff16151514151561131757600080fd5b600b54823073ffffffffffffffffffffffffffffffffffffffff1631031015611412576003600881111561134757fe5b7f156d6cb6cc34f6b31e5be69ffcef53ed6792ac9fd0577d597fc504cb839fe04284604051808273ffffffffffffffffffffffffffffffffffffffff1673ffffffffffffffffffffffffffffffffffffffff16815260200180602001828103825260318152602001807f4e6f7420456e6f7567682046756e647320696e20436f6e747261637420746f2081526020017f436f76657220546f74616c5061796f75740000000000000000000000000000008152506040019250505060405180910390a26000905061153b565b60008373ffffffffffffffffffffffffffffffffffffffff161415611456576000809054906101000a900473ffffffffffffffffffffffffffffffffffffffff1692505b8273ffffffffffffffffffffffffffffffffffffffff166108fc839081150290604051600060405180830381858888f19350505050151561149657600080fd5b600060028111156114a357fe5b7faedc5f32e63067eb22e3246102cbba5b30f2e81f6369274b60a485771c8d99d58430604051808373ffffffffffffffffffffffffffffffffffffffff1673ffffffffffffffffffffffffffffffffffffffff1681526020018273ffffffffffffffffffffffffffffffffffffffff1673ffffffffffffffffffffffffffffffffffffffff1681526020019250505060405180910390a25b92915050565b60011515600560003373ffffffffffffffffffffffffffffffffffffffff1673ffffffffffffffffffffffffffffffffffffffff16815260200190815260200160002060009054906101000a900460ff1615151415156115a057600080fd5b8060038190555050565b60011515600560003373ffffffffffffffffffffffffffffffffffffffff1673ffffffffffffffffffffffffffffffffffffffff16815260200190815260200160002060009054906101000a900460ff16151514151561160957600080fd5b8060048190555050565b600060011515600560003373ffffffffffffffffffffffffffffffffffffffff1673ffffffffffffffffffffffffffffffffffffffff16815260200190815260200160002060009054906101000a900460ff16151514151561167457600080fd5b3073ffffffffffffffffffffffffffffffffffffffff1631905090565b60035481565b60004260015403905090565b60045481565b60008273ffffffffffffffffffffffffffffffffffffffff16600860008461ffff1661ffff16815260200190815260200160002060009054906101000a900473ffffffffffffffffffffffffffffffffffffffff1673ffffffffffffffffffffffffffffffffffffffff16149050929150505600a165627a7a723058208d69cb3b5b90e2033cf0b2922bf534e74e0d2727539f36cd431fe2bec839c3d20029",
  "source": "pragma solidity ^0.4.4;\n\ncontract MarchMadness {\n  address Owner;\n  event OwnershipUpdated(address oldOwner, address newOwner);\n\n  uint LockTime;\n\n  uint public EntryFee; //what we take\n  uint public PoolFee; //what we take\n  uint public SalesCommission; //\n\n  mapping(address => bool) ContractAdmins;\n\n  mapping(uint16 => uint) Pools; //poolId to entry fee in Wei\n  mapping(uint16 => uint) PoolValue; //poolId to poolsTotalEntryFeeCollected\n  mapping(uint16 => address) PoolOwners;\n  \n\n  mapping(address => uint16) Entries;  //address to poolID\n  mapping(address => bytes32) BracketStore; //address to bracket\n\n  \n  uint TotalPayouts;\n  uint TotalCharity; \n\n\n  //0, \"Authorized Withdraw\n  //1, \"Winner Payment\"\n  //2, Sale\n  enum PaymentCode {\n    AuthorizedWithdraw, \n    WinnerPayment, \n    Sale\n    }\n  event PaymentMade(address payee, address payer, PaymentCode indexed paidCode);\n  \n \n\n  // 0, \"Insufficient value to cover sale\"\n  // 1, \"No Bracket Passed for Validation\"\n  // 2, \"Final and Submitted Bracket Not Equal\"\n  // 3, \"Not Enough Funds in Contract to Cover TotalPayout\"\n  //4, \"Entry Fee Not Met\"\n  //5, \"Pool value at Overflow (currently uint72);\n  //6, \"Attempted to sell Empty bracket\"\n  //7, \"Attempted to sell entry in pool with no payout\n  enum ErrorCode {\n    InsufficientValueForSale, \n    NoBracketToValidate,\n    SubmittedAndFinalBracketMismatch, \n    PoolValueGreaterThanTotalPayout,\n\tPoolFeeNotMet,\n    EntryFeeNotMet,\n    PoolOverflow,\n    SellingEmptyBracket,\n    SellingFreeTournyBracket\n    }\n  event PaymentError(address attemptedPayee, ErrorCode indexed errCode, string errReason);\n  event BracketError(address entrant, ErrorCode indexed errCode,string errReason);\n  event SaleError(address errParty, ErrorCode indexed errCode, string errReason);\n \n\n\n  event PoolCreated(address owner, uint indexed poolId, uint fee);\n  event BracketCreated(address owner, uint indexed poolId, bytes32 bracket);\n  mapping(address => uint) charityHold;\n  event DonationReceived(address donor, uint amountDonated);\n  event DonationRefunded(address donor, uint amountRefunded, uint donationLeft);\n\n\n  modifier isPoolOwner(uint16 pool) {\n    require(isAddressPoolOwner(msg.sender, pool));\n    _;\n  }\n\n  modifier isAdmin() {\n    require(ContractAdmins[msg.sender] == true);\n    _;\n  }\n\n  modifier tournamentNotStarted() {\n    require(now <= LockTime);\n    _;\n  }\n\n\n\n\n\n  function MarchMadness(uint poolFee, uint lockBracketsAfter, uint entryFee, uint16 salesCommission) public {\n    ContractAdmins[msg.sender] = true;\n    PoolFee = poolFee;\n    EntryFee = entryFee;\n    SalesCommission = salesCommission;\n    LockTime = now + lockBracketsAfter;\n    \n    OwnershipUpdated(0x0, Owner);\n  }\n\n\n\n  function addAdmin(address newAdmin) public isAdmin {\n\trequire(newAdmin != 0x0);\n    ContractAdmins[newAdmin] = true;\n  }\n\n  function removeAdmin(address removedAdmin) public isAdmin {\n    require(msg.sender != removedAdmin);\n    ContractAdmins[removedAdmin] = false;\n  }\n\n  function updateEntryFee(uint newFee) public isAdmin { \n    EntryFee = newFee;\n  }\n\n  function updatePoolFee(uint newFee) public isAdmin {\n    PoolFee = newFee;\n  }\n\n  function updateSalesCommission(uint newFee) public isAdmin {\n    SalesCommission = newFee;\n  }\n  \n  function secondsUntilLock() public view returns (uint secondsLeft) {\n\treturn LockTime - now;\n  }\n\n  function getContractValue() public view isAdmin returns (uint) {\n  \t  return this.balance;\n  }\n\n  //handled\n  function withdrawFunds(address withdrawTo, uint amount) public isAdmin returns (bool) {\n    if (this.balance - (amount) < TotalPayouts) {\n      PaymentError(withdrawTo, ErrorCode.PoolValueGreaterThanTotalPayout, \"Not Enough Funds in Contract to Cover TotalPayout\");\n      return false;\n    }\n\n    if (withdrawTo == 0x0) { \n      withdrawTo = Owner;\n    }\n    withdrawTo.transfer(amount);\n    PaymentMade(withdrawTo, address(this), PaymentCode.AuthorizedWithdraw);\n  }\n\n\n\n  function createPool(uint16 pool, uint fee) public payable tournamentNotStarted {\n    // require(PoolOwners[pool] == 0x0);\n    if (msg.value < PoolFee) {\n      PaymentError(msg.sender, ErrorCode.PoolFeeNotMet, \"Insufficient fee to cover pool creation\");\n      return;\n    }\n    Pools[pool] = fee;\n    PoolOwners[pool] = msg.sender;\n    PoolCreated(PoolOwners[pool], pool, Pools[pool]);\n  }\n\n  function getPoolValueInEth(uint16 pool) public view returns (uint) {\n    //require (isAddressContractAdmin(msg.sender) || isAddressPoolOwner(msg.sender, pool) || isAddressInPool(msg.sender, pool));\n    return PoolValue[pool] / 1 ether;\n  }\n\n  //eventually pass the hashed bracked\n  function createBracket(bytes32 bracket, uint16 poolId)  public payable tournamentNotStarted {\n    uint poolEntryFee = Pools[poolId];\n    uint poolValue = PoolValue[poolId];\n    if (msg.value < poolEntryFee + EntryFee) {\n      BracketError(msg.sender, ErrorCode.EntryFeeNotMet, \"Pool and Entry fee not met\");\n      return;\n    }\n    \n    if (poolValue + poolEntryFee < poolValue) {\n      BracketError(msg.sender, ErrorCode.PoolOverflow, \"Pool value would overflow with more brackets\");\n      return;\n    }\n\n    Entries[msg.sender] = poolId;\n    BracketStore[msg.sender] = bracket;\n    TotalPayouts += msg.value - EntryFee;\n    PoolValue[poolId] += poolEntryFee;\n    BracketCreated(msg.sender, Entries[msg.sender],BracketStore[msg.sender]);\n  }\n\n\n  function updateBracket(bytes32 bracket) public tournamentNotStarted {\n    require(Entries[msg.sender] != 0);\n    BracketStore[msg.sender] = bracket;\n  }\n \n\n  // function sellBracket(address newOwner, uint saleAmountInEth) public payable returns (bool) {\n  //   if (msg.value < (saleAmountInEth * 1 ether) + SalesCommission) {\n  //     SalesError(msg.sender, ErrorCode.InsufficientValueForSale, \"Insufficient value to cover sale\");\n  //     return false;\n  //   }\n\n  //   if (BracketStore[msg.sender] == 0x0) {\n  //     SalesError(msg.sender, ErrorCode.SellingEmptyBracket, \"Attempted to sell Empty Bracket\");\n  //     return false;\n  //   }\n\n  //   if (Pools[Entries[msg.sender]] == 0x0) {\n  //     SalesError(msg.sender)\n  //   }\n\n  //   msg.sender.transfer(saleAmountInEth * 1 ether);\n  //   Entries[newOwner] = Entries[msg.sender];\n  //   BracketStore[newOwner] = BracketStore[msg.sender];\n  //   Entries[msg.sender] = 0;\n  //   BracketStore[msg.sender] = 0x0;\n  //   PaymentMade(msg.sender, newOwner, PaymentCode.Sale);\n  // }\n\n  function payWinner(address winner, uint16 pool, bytes32 bracket)  public payable isAdmin isPoolOwner(pool) returns(bool) {\n      if (bracket == 0) {\n        PaymentError(winner, ErrorCode.NoBracketToValidate, \"No Bracket Passed for Validation\");\n        return false;\n      }\n      if (BracketStore[winner] != bracket) {\n        PaymentError(winner, ErrorCode.SubmittedAndFinalBracketMismatch, \"Final and Submitted Bracket Not Equal\");\n        return false;\n      }\n\n      if (Pools[pool] == 0) {\n        PaymentError(winner, ErrorCode.PoolValueGreaterThanTotalPayout, \"Pool Value GreaterThan\");\n        return false;\n      }\n      require(Pools[pool] > 0);\n      winner.transfer(Pools[pool]);\n      PaymentMade(winner, address(this), PaymentCode.WinnerPayment);\n      TotalPayouts -= Pools[pool];\n      Pools[pool] = 0;\n  }\n\n  function isAddressContractAdmin(address checkAddress) private view returns (bool) {\n    return checkAddress == Owner;\n  }\n\n  function isAddressPoolOwner(address checkAddress, uint16 pool) private view returns (bool) {\n    return PoolOwners[pool] == checkAddress;\n  }\n\n  function isAddressInPool(address checkAddress, uint16 pool) private view returns (bool) {\n    return Entries[checkAddress] == pool;\n  }\n\n  function () public payable {\n     //if something goes wrong put money in the charity hold for either a later fund or if unclaimed keep/give to charity\n    charityHold[msg.sender] += msg.value;\n    TotalCharity += msg.value;\n    DonationReceived(msg.sender, msg.value);\n  }\n\n  // function refundDonation(address refundAddress, uint amountToRefund) public returns (bool) {\n  //   require(this.balance >= TotalPayouts + amountToRefund);\n  //   if (charityHold[refundAddress] > 0) {\n  //     refundAddress.transfer(amountToRefund);\n  //     DonationRefunded(refundAddress, amountToRefund, charityHold[refundAddress]);\n  //   } else {\n  //     return false;\n  //   }\n  // }\n}\n",
  "sourcePath": "D:\\Data\\Dev\\March Madness\\March Madness\\Contracts\\contracts\\MarchMadness.sol",
  "compiler": {
    "name": "solc",
    "version": "0.4.19+commit.c4cbbb05.Emscripten.clang"
  },
  "schemaVersion": "2.0.0",
  "updatedAt": "2018-03-12T01:08:18.040Z"
}