{
  "contractName": "MarchMadness",
  "abi": [
    {
      "constant": true,
      "inputs": [],
      "name": "EntryFee",
      "outputs": [
        {
          "name": "",
          "type": "uint256"
        }
      ],
      "payable": false,
      "stateMutability": "view",
      "type": "function"
    },
    {
      "constant": true,
      "inputs": [],
      "name": "PoolFee",
      "outputs": [
        {
          "name": "",
          "type": "uint256"
        }
      ],
      "payable": false,
      "stateMutability": "view",
      "type": "function"
    },
    {
      "constant": true,
      "inputs": [],
      "name": "SalesCommission",
      "outputs": [
        {
          "name": "",
          "type": "uint256"
        }
      ],
      "payable": false,
      "stateMutability": "view",
      "type": "function"
    },
    {
      "inputs": [
        {
          "name": "poolFee",
          "type": "uint256"
        },
        {
          "name": "lockBracketsAfter",
          "type": "uint256"
        },
        {
          "name": "entryFee",
          "type": "uint256"
        },
        {
          "name": "salesCommission",
          "type": "uint16"
        }
      ],
      "payable": false,
      "stateMutability": "nonpayable",
      "type": "constructor"
    },
    {
      "payable": true,
      "stateMutability": "payable",
      "type": "fallback"
    },
    {
      "anonymous": false,
      "inputs": [
        {
          "indexed": false,
          "name": "oldOwner",
          "type": "address"
        },
        {
          "indexed": false,
          "name": "newOwner",
          "type": "address"
        }
      ],
      "name": "OwnershipUpdated",
      "type": "event"
    },
    {
      "anonymous": false,
      "inputs": [
        {
          "indexed": false,
          "name": "payee",
          "type": "address"
        },
        {
          "indexed": false,
          "name": "payer",
          "type": "address"
        },
        {
          "indexed": true,
          "name": "paidCode",
          "type": "uint8"
        }
      ],
      "name": "PaymentMade",
      "type": "event"
    },
    {
      "anonymous": false,
      "inputs": [
        {
          "indexed": false,
          "name": "attemptedPayee",
          "type": "address"
        },
        {
          "indexed": true,
          "name": "errCode",
          "type": "uint8"
        },
        {
          "indexed": false,
          "name": "errReason",
          "type": "string"
        }
      ],
      "name": "PaymentError",
      "type": "event"
    },
    {
      "anonymous": false,
      "inputs": [
        {
          "indexed": false,
          "name": "entrant",
          "type": "address"
        },
        {
          "indexed": true,
          "name": "errCode",
          "type": "uint8"
        },
        {
          "indexed": false,
          "name": "errReason",
          "type": "string"
        }
      ],
      "name": "BracketError",
      "type": "event"
    },
    {
      "anonymous": false,
      "inputs": [
        {
          "indexed": false,
          "name": "errParty",
          "type": "address"
        },
        {
          "indexed": true,
          "name": "errCode",
          "type": "uint8"
        },
        {
          "indexed": false,
          "name": "errReason",
          "type": "string"
        }
      ],
      "name": "SaleError",
      "type": "event"
    },
    {
      "anonymous": false,
      "inputs": [
        {
          "indexed": false,
          "name": "owner",
          "type": "address"
        },
        {
          "indexed": true,
          "name": "poolId",
          "type": "uint256"
        },
        {
          "indexed": false,
          "name": "fee",
          "type": "uint256"
        }
      ],
      "name": "PoolCreated",
      "type": "event"
    },
    {
      "anonymous": false,
      "inputs": [
        {
          "indexed": false,
          "name": "owner",
          "type": "address"
        },
        {
          "indexed": true,
          "name": "poolId",
          "type": "uint256"
        },
        {
          "indexed": false,
          "name": "bracket",
          "type": "bytes32"
        }
      ],
      "name": "BracketCreated",
      "type": "event"
    },
    {
      "anonymous": false,
      "inputs": [
        {
          "indexed": false,
          "name": "donor",
          "type": "address"
        },
        {
          "indexed": false,
          "name": "amountDonated",
          "type": "uint256"
        }
      ],
      "name": "DonationReceived",
      "type": "event"
    },
    {
      "anonymous": false,
      "inputs": [
        {
          "indexed": false,
          "name": "donor",
          "type": "address"
        },
        {
          "indexed": false,
          "name": "amountRefunded",
          "type": "uint256"
        },
        {
          "indexed": false,
          "name": "donationLeft",
          "type": "uint256"
        }
      ],
      "name": "DonationRefunded",
      "type": "event"
    },
    {
      "constant": false,
      "inputs": [
        {
          "name": "newAdmin",
          "type": "address"
        }
      ],
      "name": "addAdmin",
      "outputs": [],
      "payable": false,
      "stateMutability": "nonpayable",
      "type": "function"
    },
    {
      "constant": false,
      "inputs": [
        {
          "name": "removedAdmin",
          "type": "address"
        }
      ],
      "name": "removeAdmin",
      "outputs": [],
      "payable": false,
      "stateMutability": "nonpayable",
      "type": "function"
    },
    {
      "constant": false,
      "inputs": [
        {
          "name": "newFee",
          "type": "uint256"
        }
      ],
      "name": "updateEntryFee",
      "outputs": [],
      "payable": false,
      "stateMutability": "nonpayable",
      "type": "function"
    },
    {
      "constant": false,
      "inputs": [
        {
          "name": "newFee",
          "type": "uint256"
        }
      ],
      "name": "updatePoolFee",
      "outputs": [],
      "payable": false,
      "stateMutability": "nonpayable",
      "type": "function"
    },
    {
      "constant": false,
      "inputs": [
        {
          "name": "newFee",
          "type": "uint256"
        }
      ],
      "name": "updateSalesCommission",
      "outputs": [],
      "payable": false,
      "stateMutability": "nonpayable",
      "type": "function"
    },
    {
      "constant": true,
      "inputs": [],
      "name": "secondsUntilLock",
      "outputs": [
        {
          "name": "secondsLeft",
          "type": "uint256"
        }
      ],
      "payable": false,
      "stateMutability": "view",
      "type": "function"
    },
    {
      "constant": true,
      "inputs": [],
      "name": "getContractValue",
      "outputs": [
        {
          "name": "",
          "type": "uint256"
        }
      ],
      "payable": false,
      "stateMutability": "view",
      "type": "function"
    },
    {
      "constant": false,
      "inputs": [
        {
          "name": "withdrawTo",
          "type": "address"
        },
        {
          "name": "amount",
          "type": "uint256"
        }
      ],
      "name": "withdrawFunds",
      "outputs": [
        {
          "name": "",
          "type": "bool"
        }
      ],
      "payable": false,
      "stateMutability": "nonpayable",
      "type": "function"
    },
    {
      "constant": false,
      "inputs": [
        {
          "name": "pool",
          "type": "uint16"
        },
        {
          "name": "fee",
          "type": "uint256"
        }
      ],
      "name": "createPool",
      "outputs": [],
      "payable": true,
      "stateMutability": "payable",
      "type": "function"
    },
    {
      "constant": true,
      "inputs": [
        {
          "name": "pool",
          "type": "uint16"
        }
      ],
      "name": "getPoolValue",
      "outputs": [
        {
          "name": "",
          "type": "uint256"
        }
      ],
      "payable": false,
      "stateMutability": "view",
      "type": "function"
    },
    {
      "constant": true,
      "inputs": [
        {
          "name": "pool",
          "type": "uint16"
        }
      ],
      "name": "getPoolEntryFee",
      "outputs": [
        {
          "name": "",
          "type": "uint256"
        }
      ],
      "payable": false,
      "stateMutability": "view",
      "type": "function"
    },
    {
      "constant": false,
      "inputs": [
        {
          "name": "bracket",
          "type": "bytes32"
        },
        {
          "name": "poolId",
          "type": "uint16"
        }
      ],
      "name": "createBracket",
      "outputs": [],
      "payable": true,
      "stateMutability": "payable",
      "type": "function"
    },
    {
      "constant": false,
      "inputs": [
        {
          "name": "bracket",
          "type": "bytes32"
        }
      ],
      "name": "updateBracket",
      "outputs": [],
      "payable": false,
      "stateMutability": "nonpayable",
      "type": "function"
    },
    {
      "constant": false,
      "inputs": [
        {
          "name": "winner",
          "type": "address"
        },
        {
          "name": "pool",
          "type": "uint16"
        },
        {
          "name": "bracket",
          "type": "bytes32"
        }
      ],
      "name": "payWinner",
      "outputs": [
        {
          "name": "",
          "type": "bool"
        }
      ],
      "payable": true,
      "stateMutability": "payable",
      "type": "function"
    }
  ],
  "bytecode": "0x6060604052341561000f57600080fd5b604051608080611816833981016040528080519060200190919080519060200190919080519060200190919080519060200190919050506001600560003373ffffffffffffffffffffffffffffffffffffffff1673ffffffffffffffffffffffffffffffffffffffff16815260200190815260200160002060006101000a81548160ff02191690831515021790555083600381905550816002819055508061ffff166004819055508242016001819055507f4c19d31874b3f8325813d90efdd10758f703ab99b84367f07276ecd2cd69c95d60008060009054906101000a900473ffffffffffffffffffffffffffffffffffffffff16604051808373ffffffffffffffffffffffffffffffffffffffff1681526020018273ffffffffffffffffffffffffffffffffffffffff1673ffffffffffffffffffffffffffffffffffffffff1681526020019250505060405180910390a1505050506116a0806101766000396000f3006060604052600436106100f1576000357c0100000000000000000000000000000000000000000000000000000000900463ffffffff1680631785f53c146101bb57806322217184146101f457806341f077871461021b57806359fe8c841461027b57806370480275146102a457806375dda928146102dd578063aa18262614610318578063b482c3141461033b578063b8ff642a14610364578063bba5053c14610389578063c1075329146103c4578063c2cac04b1461041e578063d853c26914610441578063dc82697c14610464578063e1c5af5b1461048d578063ebc71b2a146104b6578063fd176510146104df575b34600d60003373ffffffffffffffffffffffffffffffffffffffff1673ffffffffffffffffffffffffffffffffffffffff1681526020019081526020016000206000828254019250508190555034600c600082825401925050819055507f264f630d9efa0d07053a31163641d9fcc0adafc9d9e76f1c37c2ce3a558d2c523334604051808373ffffffffffffffffffffffffffffffffffffffff1673ffffffffffffffffffffffffffffffffffffffff1681526020018281526020019250505060405180910390a1005b34156101c657600080fd5b6101f2600480803573ffffffffffffffffffffffffffffffffffffffff16906020019091905050610508565b005b34156101ff57600080fd5b6102196004808035600019169060200190919050506105fd565b005b610261600480803573ffffffffffffffffffffffffffffffffffffffff1690602001909190803561ffff16906020019091908035600019169060200190919050506106ba565b604051808215151515815260200191505060405180910390f35b341561028657600080fd5b61028e610a82565b6040518082815260200191505060405180910390f35b34156102af57600080fd5b6102db600480803573ffffffffffffffffffffffffffffffffffffffff16906020019091905050610a88565b005b34156102e857600080fd5b610302600480803561ffff16906020019091905050610b68565b6040518082815260200191505060405180910390f35b341561032357600080fd5b6103396004808035906020019091905050610b8d565b005b61036260048080356000191690602001909190803561ffff16906020019091905050610bf6565b005b610387600480803561ffff16906020019091908035906020019091905050610fc8565b005b341561039457600080fd5b6103ae600480803561ffff1690602001909190505061125c565b6040518082815260200191505060405180910390f35b34156103cf57600080fd5b610404600480803573ffffffffffffffffffffffffffffffffffffffff16906020019091908035906020019091905050611281565b604051808215151515815260200191505060405180910390f35b341561042957600080fd5b61043f600480803590602001909190505061150c565b005b341561044c57600080fd5b6104626004808035906020019091905050611575565b005b341561046f57600080fd5b6104776115de565b6040518082815260200191505060405180910390f35b341561049857600080fd5b6104a061165c565b6040518082815260200191505060405180910390f35b34156104c157600080fd5b6104c9611662565b6040518082815260200191505060405180910390f35b34156104ea57600080fd5b6104f261166e565b6040518082815260200191505060405180910390f35b60011515600560003373ffffffffffffffffffffffffffffffffffffffff1673ffffffffffffffffffffffffffffffffffffffff16815260200190815260200160002060009054906101000a900460ff16151514151561056757600080fd5b8073ffffffffffffffffffffffffffffffffffffffff163373ffffffffffffffffffffffffffffffffffffffff16141515156105a257600080fd5b6000600560008373ffffffffffffffffffffffffffffffffffffffff1673ffffffffffffffffffffffffffffffffffffffff16815260200190815260200160002060006101000a81548160ff02191690831515021790555050565b600154421115151561060e57600080fd5b6000600960003373ffffffffffffffffffffffffffffffffffffffff1673ffffffffffffffffffffffffffffffffffffffff16815260200190815260200160002060009054906101000a900461ffff1661ffff161415151561066f57600080fd5b80600a60003373ffffffffffffffffffffffffffffffffffffffff1673ffffffffffffffffffffffffffffffffffffffff168152602001908152602001600020816000191690555050565b600060011515600560003373ffffffffffffffffffffffffffffffffffffffff1673ffffffffffffffffffffffffffffffffffffffff16815260200190815260200160002060009054906101000a900460ff16151514151561071b57600080fd5b6000600102826000191614156107dd576001600881111561073857fe5b7f156d6cb6cc34f6b31e5be69ffcef53ed6792ac9fd0577d597fc504cb839fe04285604051808273ffffffffffffffffffffffffffffffffffffffff1673ffffffffffffffffffffffffffffffffffffffff16815260200180602001828103825260208152602001807f4e6f20427261636b65742050617373656420666f722056616c69646174696f6e8152506020019250505060405180910390a260009050610a7b565b8160001916600a60008673ffffffffffffffffffffffffffffffffffffffff1673ffffffffffffffffffffffffffffffffffffffff1681526020019081526020016000205460001916141515610905576002600881111561083a57fe5b7f156d6cb6cc34f6b31e5be69ffcef53ed6792ac9fd0577d597fc504cb839fe04285604051808273ffffffffffffffffffffffffffffffffffffffff1673ffffffffffffffffffffffffffffffffffffffff16815260200180602001828103825260258152602001807f46696e616c20616e64205375626d697474656420427261636b6574204e6f742081526020017f457175616c0000000000000000000000000000000000000000000000000000008152506040019250505060405180910390a260009050610a7b565b6000600760008561ffff1661ffff1681526020019081526020016000205411151561092f57600080fd5b8373ffffffffffffffffffffffffffffffffffffffff166108fc600760008661ffff1661ffff168152602001908152602001600020549081150290604051600060405180830381858888f19350505050151561098a57600080fd5b6001600281111561099757fe5b7faedc5f32e63067eb22e3246102cbba5b30f2e81f6369274b60a485771c8d99d58530604051808373ffffffffffffffffffffffffffffffffffffffff1673ffffffffffffffffffffffffffffffffffffffff1681526020018273ffffffffffffffffffffffffffffffffffffffff1673ffffffffffffffffffffffffffffffffffffffff1681526020019250505060405180910390a2600660008461ffff1661ffff16815260200190815260200160002054600b600082825403925050819055506000600760008561ffff1661ffff168152602001908152602001600020819055505b9392505050565b60025481565b60011515600560003373ffffffffffffffffffffffffffffffffffffffff1673ffffffffffffffffffffffffffffffffffffffff16815260200190815260200160002060009054906101000a900460ff161515141515610ae757600080fd5b60008173ffffffffffffffffffffffffffffffffffffffff1614151515610b0d57600080fd5b6001600560008373ffffffffffffffffffffffffffffffffffffffff1673ffffffffffffffffffffffffffffffffffffffff16815260200190815260200160002060006101000a81548160ff02191690831515021790555050565b6000600660008361ffff1661ffff168152602001908152602001600020549050919050565b60011515600560003373ffffffffffffffffffffffffffffffffffffffff1673ffffffffffffffffffffffffffffffffffffffff16815260200190815260200160002060009054906101000a900460ff161515141515610bec57600080fd5b8060028190555050565b6000806001544211151515610c0a57600080fd5b600660008461ffff1661ffff168152602001908152602001600020549150600760008461ffff1661ffff1681526020019081526020016000205490506002548201341015610d005760056008811115610c5f57fe5b7f0f4531696630861df22650631bf36036c50df3ef335e656c939c49962ef9f54433604051808273ffffffffffffffffffffffffffffffffffffffff1673ffffffffffffffffffffffffffffffffffffffff168152602001806020018281038252601a8152602001807f506f6f6c20616e6420456e74727920666565206e6f74206d65740000000000008152506020019250505060405180910390a2610fc2565b808282011015610dde5760066008811115610d1757fe5b7f0f4531696630861df22650631bf36036c50df3ef335e656c939c49962ef9f54433604051808273ffffffffffffffffffffffffffffffffffffffff1673ffffffffffffffffffffffffffffffffffffffff168152602001806020018281038252602c8152602001807f506f6f6c2076616c756520776f756c64206f766572666c6f772077697468206d81526020017f6f726520627261636b65747300000000000000000000000000000000000000008152506040019250505060405180910390a2610fc2565b82600960003373ffffffffffffffffffffffffffffffffffffffff1673ffffffffffffffffffffffffffffffffffffffff16815260200190815260200160002060006101000a81548161ffff021916908361ffff16021790555083600a60003373ffffffffffffffffffffffffffffffffffffffff1673ffffffffffffffffffffffffffffffffffffffff16815260200190815260200160002081600019169055506002543403600b6000828254019250508190555081600760008561ffff1661ffff16815260200190815260200160002060008282540192505081905550600960003373ffffffffffffffffffffffffffffffffffffffff1673ffffffffffffffffffffffffffffffffffffffff16815260200190815260200160002060009054906101000a900461ffff1661ffff167f1b1de71f3b6a5bdcf1154e22e6f2c40d9f0a7af01f81c35400d345d0e693459733600a60003373ffffffffffffffffffffffffffffffffffffffff1673ffffffffffffffffffffffffffffffffffffffff16815260200190815260200160002054604051808373ffffffffffffffffffffffffffffffffffffffff1673ffffffffffffffffffffffffffffffffffffffff16815260200182600019166000191681526020019250505060405180910390a25b50505050565b6001544211151515610fd957600080fd5b6000600860008461ffff1661ffff16815260200190815260200160002060009054906101000a900473ffffffffffffffffffffffffffffffffffffffff1673ffffffffffffffffffffffffffffffffffffffff1614151561103957600080fd5b600354341015611117576004600881111561105057fe5b7f156d6cb6cc34f6b31e5be69ffcef53ed6792ac9fd0577d597fc504cb839fe04233604051808273ffffffffffffffffffffffffffffffffffffffff1673ffffffffffffffffffffffffffffffffffffffff16815260200180602001828103825260278152602001807f496e73756666696369656e742066656520746f20636f76657220706f6f6c206381526020017f72656174696f6e000000000000000000000000000000000000000000000000008152506040019250505060405180910390a2611258565b80600660008461ffff1661ffff1681526020019081526020016000208190555033600860008461ffff1661ffff16815260200190815260200160002060006101000a81548173ffffffffffffffffffffffffffffffffffffffff021916908373ffffffffffffffffffffffffffffffffffffffff1602179055508161ffff167f620f7d92e94f37e846b7a037fa45c886f3ab726b58c6531813825a47ad4eec50600860008561ffff1661ffff16815260200190815260200160002060009054906101000a900473ffffffffffffffffffffffffffffffffffffffff16600660008661ffff1661ffff16815260200190815260200160002054604051808373ffffffffffffffffffffffffffffffffffffffff1673ffffffffffffffffffffffffffffffffffffffff1681526020018281526020019250505060405180910390a25b5050565b6000600760008361ffff1661ffff168152602001908152602001600020549050919050565b600060011515600560003373ffffffffffffffffffffffffffffffffffffffff1673ffffffffffffffffffffffffffffffffffffffff16815260200190815260200160002060009054906101000a900460ff1615151415156112e257600080fd5b600b54823073ffffffffffffffffffffffffffffffffffffffff16310310156113dd576003600881111561131257fe5b7f156d6cb6cc34f6b31e5be69ffcef53ed6792ac9fd0577d597fc504cb839fe04284604051808273ffffffffffffffffffffffffffffffffffffffff1673ffffffffffffffffffffffffffffffffffffffff16815260200180602001828103825260318152602001807f4e6f7420456e6f7567682046756e647320696e20436f6e747261637420746f2081526020017f436f76657220546f74616c5061796f75740000000000000000000000000000008152506040019250505060405180910390a260009050611506565b60008373ffffffffffffffffffffffffffffffffffffffff161415611421576000809054906101000a900473ffffffffffffffffffffffffffffffffffffffff1692505b8273ffffffffffffffffffffffffffffffffffffffff166108fc839081150290604051600060405180830381858888f19350505050151561146157600080fd5b6000600281111561146e57fe5b7faedc5f32e63067eb22e3246102cbba5b30f2e81f6369274b60a485771c8d99d58430604051808373ffffffffffffffffffffffffffffffffffffffff1673ffffffffffffffffffffffffffffffffffffffff1681526020018273ffffffffffffffffffffffffffffffffffffffff1673ffffffffffffffffffffffffffffffffffffffff1681526020019250505060405180910390a25b92915050565b60011515600560003373ffffffffffffffffffffffffffffffffffffffff1673ffffffffffffffffffffffffffffffffffffffff16815260200190815260200160002060009054906101000a900460ff16151514151561156b57600080fd5b8060038190555050565b60011515600560003373ffffffffffffffffffffffffffffffffffffffff1673ffffffffffffffffffffffffffffffffffffffff16815260200190815260200160002060009054906101000a900460ff1615151415156115d457600080fd5b8060048190555050565b600060011515600560003373ffffffffffffffffffffffffffffffffffffffff1673ffffffffffffffffffffffffffffffffffffffff16815260200190815260200160002060009054906101000a900460ff16151514151561163f57600080fd5b3073ffffffffffffffffffffffffffffffffffffffff1631905090565b60035481565b60004260015403905090565b600454815600a165627a7a723058201ced5a66e3a68c484637fbe9a5aaf556c4616df85232b5e0b9250a9a3af2c0910029",
  "source": "pragma solidity ^0.4.4;\n\ncontract MarchMadness {\n  address Owner;\n  event OwnershipUpdated(address oldOwner, address newOwner);\n\n  uint LockTime;\n\n  uint public EntryFee; //what we take\n  uint public PoolFee; //what we take\n  uint public SalesCommission; //\n\n  mapping(address => bool) ContractAdmins;\n\n  mapping(uint16 => uint) Pools; //poolId to entry fee in Wei\n  mapping(uint16 => uint) PoolValue; //poolId to poolsTotalEntryFeeCollected\n  mapping(uint16 => address) PoolOwners;\n  \n\n  mapping(address => uint16) Entries;  //address to poolID\n  mapping(address => bytes32) BracketStore; //address to bracket\n\n  \n  uint TotalPayouts;\n  uint TotalCharity; \n\n\n  //0, \"Authorized Withdraw\n  //1, \"Winner Payment\"\n  //2, Sale\n  enum PaymentCode {\n    AuthorizedWithdraw, \n    WinnerPayment, \n    Sale\n    }\n  event PaymentMade(address payee, address payer, PaymentCode indexed paidCode);\n  \n \n\n  // 0, \"Insufficient value to cover sale\"\n  // 1, \"No Bracket Passed for Validation\"\n  // 2, \"Final and Submitted Bracket Not Equal\"\n  // 3, \"Not Enough Funds in Contract to Cover TotalPayout\"\n  //4, \"Entry Fee Not Met\"\n  //5, \"Pool value at Overflow (currently uint72);\n  //6, \"Attempted to sell Empty bracket\"\n  //7, \"Attempted to sell entry in pool with no payout\n  enum ErrorCode {\n    InsufficientValueForSale, \n    NoBracketToValidate,\n    SubmittedAndFinalBracketMismatch, \n    PoolValueGreaterThanTotalPayout,\n\tPoolFeeNotMet,\n    EntryFeeNotMet,\n    PoolOverflow,\n    SellingEmptyBracket,\n    SellingFreeTournyBracket\n    }\n  event PaymentError(address attemptedPayee, ErrorCode indexed errCode, string errReason);\n  event BracketError(address entrant, ErrorCode indexed errCode,string errReason);\n  event SaleError(address errParty, ErrorCode indexed errCode, string errReason);\n \n\n\n  event PoolCreated(address owner, uint indexed poolId, uint fee);\n  event BracketCreated(address owner, uint indexed poolId, bytes32 bracket);\n  mapping(address => uint) charityHold;\n  event DonationReceived(address donor, uint amountDonated);\n  event DonationRefunded(address donor, uint amountRefunded, uint donationLeft);\n\n\n  modifier isPoolOwner(uint16 pool) {\n    require(isAddressPoolOwner(msg.sender, pool));\n    _;\n  }\n\n  modifier isAdmin() {\n    require(ContractAdmins[msg.sender] == true);\n    _;\n  }\n\n  modifier tournamentNotStarted() {\n    require(now <= LockTime);\n    _;\n  }\n\n\n\n\n\n  function MarchMadness(uint poolFee, uint lockBracketsAfter, uint entryFee, uint16 salesCommission) public {\n    ContractAdmins[msg.sender] = true;\n    PoolFee = poolFee;\n    EntryFee = entryFee;\n    SalesCommission = salesCommission;\n    LockTime = now + lockBracketsAfter;\n    \n    OwnershipUpdated(0x0, Owner);\n  }\n\n\n\n  function addAdmin(address newAdmin) public isAdmin {\n\trequire(newAdmin != 0x0);\n    ContractAdmins[newAdmin] = true;\n  }\n\n  function removeAdmin(address removedAdmin) public isAdmin {\n    require(msg.sender != removedAdmin);\n    ContractAdmins[removedAdmin] = false;\n  }\n\n  function updateEntryFee(uint newFee) public isAdmin { \n    EntryFee = newFee;\n  }\n\n  function updatePoolFee(uint newFee) public isAdmin {\n    PoolFee = newFee;\n  }\n\n  function updateSalesCommission(uint newFee) public isAdmin {\n    SalesCommission = newFee;\n  }\n  \n  function secondsUntilLock() public view returns (uint secondsLeft) {\n\treturn LockTime - now;\n  }\n\n  function getContractValue() public view isAdmin returns (uint) {\n  \t  return this.balance;\n  }\n\n  //handled\n  function withdrawFunds(address withdrawTo, uint amount) public isAdmin returns (bool) {\n    if (this.balance - (amount) < TotalPayouts) {\n      PaymentError(withdrawTo, ErrorCode.PoolValueGreaterThanTotalPayout, \"Not Enough Funds in Contract to Cover TotalPayout\");\n      return false;\n    }\n\n    if (withdrawTo == 0x0) { \n      withdrawTo = Owner;\n    }\n    withdrawTo.transfer(amount);\n    PaymentMade(withdrawTo, address(this), PaymentCode.AuthorizedWithdraw);\n  }\n\n\n  function createPool(uint16 pool, uint fee) public payable tournamentNotStarted {\n    require(PoolOwners[pool] == 0x0);\n    if (msg.value < PoolFee) {\n      PaymentError(msg.sender, ErrorCode.PoolFeeNotMet, \"Insufficient fee to cover pool creation\");\n      return;\n    }\n    Pools[pool] = fee;\n    PoolOwners[pool] = msg.sender;\n    PoolCreated(PoolOwners[pool], pool, Pools[pool]);\n  }\n\n  function getPoolValue(uint16 pool) public view returns (uint) {\n    //require (isAddressContractAdmin(msg.sender) || isAddressPoolOwner(msg.sender, pool) || isAddressInPool(msg.sender, pool));\n    return PoolValue[pool];\n  }\n\n  function getPoolEntryFee(uint16 pool) public view returns(uint) {\n    return Pools[pool];\n  }\n\n  //eventually pass the hashed bracked\n  function createBracket(bytes32 bracket, uint16 poolId)  public payable tournamentNotStarted {\n    uint poolEntryFee = Pools[poolId];\n    uint poolValue = PoolValue[poolId];\n    if (msg.value < poolEntryFee + EntryFee) {\n      BracketError(msg.sender, ErrorCode.EntryFeeNotMet, \"Pool and Entry fee not met\");\n      return;\n    }\n    \n    if (poolValue + poolEntryFee < poolValue) {\n      BracketError(msg.sender, ErrorCode.PoolOverflow, \"Pool value would overflow with more brackets\");\n      return;\n    }\n\n    Entries[msg.sender] = poolId;\n    BracketStore[msg.sender] = bracket;\n    TotalPayouts += msg.value - EntryFee;\n    PoolValue[poolId] += poolEntryFee;\n    BracketCreated(msg.sender, Entries[msg.sender],BracketStore[msg.sender]);\n  }\n\n\n  function updateBracket(bytes32 bracket) public tournamentNotStarted {\n    require(Entries[msg.sender] != 0);\n    BracketStore[msg.sender] = bracket;\n  }\n \n\n  function payWinner(address winner, uint16 pool, bytes32 bracket)  public payable isAdmin returns(bool) {\n      if (bracket == 0) {\n        PaymentError(winner, ErrorCode.NoBracketToValidate, \"No Bracket Passed for Validation\");\n        return false;\n      }\n      if (BracketStore[winner] != bracket) {\n        PaymentError(winner, ErrorCode.SubmittedAndFinalBracketMismatch, \"Final and Submitted Bracket Not Equal\");\n        return false;\n      }\n\n      require(PoolValue[pool] > 0);\n      winner.transfer(PoolValue[pool]);\n      PaymentMade(winner, address(this), PaymentCode.WinnerPayment);\n      TotalPayouts -= Pools[pool];\n      PoolValue[pool] = 0;\n  }\n\n  function isAddressContractAdmin(address checkAddress) private view returns (bool) {\n    return checkAddress == Owner;\n  }\n\n  function isAddressPoolOwner(address checkAddress, uint16 pool) private view returns (bool) {\n    return PoolOwners[pool] == checkAddress;\n  }\n\n  function isAddressInPool(address checkAddress, uint16 pool) private view returns (bool) {\n    return Entries[checkAddress] == pool;\n  }\n\n  function () public payable {\n     //if something goes wrong put money in the charity hold for either a later fund or if unclaimed keep/give to charity\n    charityHold[msg.sender] += msg.value;\n    TotalCharity += msg.value;\n    DonationReceived(msg.sender, msg.value);\n  }\n\n  // function refundDonation(address refundAddress, uint amountToRefund) public returns (bool) {\n  //   require(this.balance >= TotalPayouts + amountToRefund);\n  //   if (charityHold[refundAddress] > 0) {\n  //     refundAddress.transfer(amountToRefund);\n  //     DonationRefunded(refundAddress, amountToRefund, charityHold[refundAddress]);\n  //   } else {\n  //     return false;\n  //   }\n  // }\n}\n",
  "sourcePath": "D:\\Data\\Dev\\March Madness\\March Madness\\Contracts\\contracts\\MarchMadness.sol",
  "compiler": {
    "name": "solc",
    "version": "0.4.19+commit.c4cbbb05.Emscripten.clang"
  },
  "schemaVersion": "2.0.0",
  "updatedAt": "2018-03-12T06:47:08.450Z"
}