{
  "contractName": "MetaCoin",
  "abi": [
    {
      "constant": true,
      "inputs": [],
      "name": "costPerMetaCoin",
      "outputs": [
        {
          "name": "",
          "type": "uint256"
        }
      ],
      "payable": false,
      "stateMutability": "view",
      "type": "function"
    },
    {
      "inputs": [],
      "payable": false,
      "stateMutability": "nonpayable",
      "type": "constructor"
    },
    {
      "anonymous": false,
      "inputs": [
        {
          "indexed": true,
          "name": "_from",
          "type": "address"
        },
        {
          "indexed": true,
          "name": "_to",
          "type": "address"
        },
        {
          "indexed": false,
          "name": "_value",
          "type": "uint256"
        }
      ],
      "name": "Transfer",
      "type": "event"
    },
    {
      "constant": false,
      "inputs": [
        {
          "name": "costPerCoin",
          "type": "uint256"
        }
      ],
      "name": "setRate",
      "outputs": [],
      "payable": false,
      "stateMutability": "nonpayable",
      "type": "function"
    },
    {
      "constant": false,
      "inputs": [
        {
          "name": "receiver",
          "type": "address"
        },
        {
          "name": "amt",
          "type": "uint256"
        }
      ],
      "name": "createCoin",
      "outputs": [],
      "payable": false,
      "stateMutability": "nonpayable",
      "type": "function"
    },
    {
      "constant": false,
      "inputs": [
        {
          "name": "receiver",
          "type": "address"
        },
        {
          "name": "amount",
          "type": "uint256"
        }
      ],
      "name": "sendCoin",
      "outputs": [
        {
          "name": "sufficient",
          "type": "bool"
        }
      ],
      "payable": false,
      "stateMutability": "nonpayable",
      "type": "function"
    },
    {
      "constant": false,
      "inputs": [],
      "name": "buyCoin",
      "outputs": [
        {
          "name": "newBalance",
          "type": "uint256"
        },
        {
          "name": "coinsBought",
          "type": "uint256"
        }
      ],
      "payable": true,
      "stateMutability": "payable",
      "type": "function"
    },
    {
      "constant": true,
      "inputs": [
        {
          "name": "addr",
          "type": "address"
        }
      ],
      "name": "getBalanceInEth",
      "outputs": [
        {
          "name": "",
          "type": "uint256"
        }
      ],
      "payable": false,
      "stateMutability": "view",
      "type": "function"
    },
    {
      "constant": true,
      "inputs": [
        {
          "name": "addr",
          "type": "address"
        }
      ],
      "name": "getBalance",
      "outputs": [
        {
          "name": "",
          "type": "uint256"
        }
      ],
      "payable": false,
      "stateMutability": "view",
      "type": "function"
    }
  ],
  "bytecode": "0x60606040526064600155341561001457600080fd5b6127106000803373ffffffffffffffffffffffffffffffffffffffff1673ffffffffffffffffffffffffffffffffffffffff168152602001908152602001600020819055503373ffffffffffffffffffffffffffffffffffffffff16600260009054906101000a9050505061061e8061008e6000396000f300606060405260043610610083576000357c0100000000000000000000000000000000000000000000000000000000900463ffffffff168063091e9a601461008857806315849dcf146100ad57806334fcf437146100d6578063595ad6c9146100f95780637bd703e81461013b57806390b98a1114610188578063f8b2cb4f146101e2575b600080fd5b61009061022f565b604051808381526020018281526020019250505060405180910390f35b34156100b857600080fd5b6100c0610291565b6040518082815260200191505060405180910390f35b34156100e157600080fd5b6100f76004808035906020019091905050610297565b005b341561010457600080fd5b610139600480803573ffffffffffffffffffffffffffffffffffffffff169060200190919080359060200190919050506102fd565b005b341561014657600080fd5b610172600480803573ffffffffffffffffffffffffffffffffffffffff169060200190919050506103a9565b6040518082815260200191505060405180910390f35b341561019357600080fd5b6101c8600480803573ffffffffffffffffffffffffffffffffffffffff16906020019091908035906020019091905050610451565b604051808215151515815260200191505060405180910390f35b34156101ed57600080fd5b610219600480803573ffffffffffffffffffffffffffffffffffffffff169060200190919050506105aa565b6040518082815260200191505060405180910390f35b600080600154670de0b6b3a76400003481151561024857fe5b040290506000803373ffffffffffffffffffffffffffffffffffffffff1673ffffffffffffffffffffffffffffffffffffffff1681526020019081526020016000205491509091565b60015481565b600260009054906101000a900473ffffffffffffffffffffffffffffffffffffffff1673ffffffffffffffffffffffffffffffffffffffff163373ffffffffffffffffffffffffffffffffffffffff161415156102f357600080fd5b8060018190555050565b600260009054906101000a900473ffffffffffffffffffffffffffffffffffffffff1673ffffffffffffffffffffffffffffffffffffffff163373ffffffffffffffffffffffffffffffffffffffff1614151561035957600080fd5b806000808473ffffffffffffffffffffffffffffffffffffffff1673ffffffffffffffffffffffffffffffffffffffff168152602001908152602001600020600082825401925050819055505050565b600073__ConvertLib____________________________6396e4ee3d6103ce846105aa565b60026000604051602001526040518363ffffffff167c0100000000000000000000000000000000000000000000000000000000028152600401808381526020018281526020019250505060206040518083038186803b151561042f57600080fd5b6102c65a03f4151561044057600080fd5b505050604051805190509050919050565b6000816000803373ffffffffffffffffffffffffffffffffffffffff1673ffffffffffffffffffffffffffffffffffffffff1681526020019081526020016000205410156104a257600090506105a4565b816000803373ffffffffffffffffffffffffffffffffffffffff1673ffffffffffffffffffffffffffffffffffffffff16815260200190815260200160002060008282540392505081905550816000808573ffffffffffffffffffffffffffffffffffffffff1673ffffffffffffffffffffffffffffffffffffffff168152602001908152602001600020600082825401925050819055508273ffffffffffffffffffffffffffffffffffffffff163373ffffffffffffffffffffffffffffffffffffffff167fddf252ad1be2c89b69c2b068fc378daa952ba7f163c4a11628f55a4df523b3ef846040518082815260200191505060405180910390a3600190505b92915050565b60008060008373ffffffffffffffffffffffffffffffffffffffff1673ffffffffffffffffffffffffffffffffffffffff1681526020019081526020016000205490509190505600a165627a7a72305820fbae14d1d87c888542b6607d60d7eec272e104063ad3c0815adc7d267c2ee93a0029",
  "source": "pragma solidity ^0.4.18;\n\nimport \"./ConvertLib.sol\";\n\n// This is just a simple example of a coin-like contract.\n// It is not standards compatible and cannot be expected to talk to other\n// coin/token contracts. If you want to create a standards-compliant\n// token, see: https://github.com/ConsenSys/Tokens. Cheers!\n\ncontract MetaCoin {\n\tmapping (address => uint) balances;\n\tuint public costPerMetaCoin = 100;\n\tevent Transfer(address indexed _from, address indexed _to, uint256 _value);\n\taddress owner;\n\tmodifier onlyOwner() {\n\t\trequire(msg.sender == owner);\n\t\t_;\n\t}\n\n\tfunction MetaCoin() public {\n\t\tbalances[msg.sender] = 10000;\n\t\towner == msg.sender;\n\t}\n\n\tfunction setRate(uint costPerCoin) public onlyOwner {\n\t\tcostPerMetaCoin = costPerCoin;\n\t}\n\n\tfunction createCoin(address receiver, uint amt) public onlyOwner {\n\t\tbalances[receiver] += amt;\n\t}\n\tfunction sendCoin(address receiver, uint amount) public returns(bool sufficient) {\n\t\tif (balances[msg.sender] < amount) return false;\n\t\tbalances[msg.sender] -= amount;\n\t\tbalances[receiver] += amount;\n\t\tTransfer(msg.sender, receiver, amount);\n\t\treturn true;\n\t}\n\n\tfunction buyCoin() public payable returns(uint newBalance, uint coinsBought ) {\n\t\tcoinsBought = (msg.value / 1 ether) * costPerMetaCoin;\n\t\t//balances[msg.sender] += coinsBought;\n\n\t\tnewBalance =  balances[msg.sender];\n\t}\n\n\tfunction getBalanceInEth(address addr) public view returns(uint){\n\t\treturn ConvertLib.convert(getBalance(addr),2);\n\t}\n\n\tfunction getBalance(address addr) public view returns(uint) {\n\t\treturn balances[addr];\n\t}\n}\n",
  "sourcePath": "c:\\Home\\CryptoMadness\\March Madness\\truffle\\contracts\\MetaCoin.sol",
  "compiler": {
    "name": "solc",
    "version": "0.4.19+commit.c4cbbb05.Emscripten.clang"
  },
  "schemaVersion": "2.0.0",
  "updatedAt": "2018-03-06T18:54:54.407Z"
}