{
  "contractName": "MetaCoin",
  "abi": [
    {
      "constant": true,
      "inputs": [],
      "name": "costPerMetaCoin",
      "outputs": [
        {
          "name": "",
          "type": "uint256"
        }
      ],
      "payable": false,
      "stateMutability": "view",
      "type": "function"
    },
    {
      "inputs": [],
      "payable": false,
      "stateMutability": "nonpayable",
      "type": "constructor"
    },
    {
      "payable": true,
      "stateMutability": "payable",
      "type": "fallback"
    },
    {
      "anonymous": false,
      "inputs": [
        {
          "indexed": true,
          "name": "_to",
          "type": "address"
        },
        {
          "indexed": true,
          "name": "_amount",
          "type": "uint256"
        }
      ],
      "name": "Minted",
      "type": "event"
    },
    {
      "anonymous": false,
      "inputs": [
        {
          "indexed": true,
          "name": "_buyer",
          "type": "address"
        },
        {
          "indexed": true,
          "name": "_amountSent",
          "type": "uint256"
        },
        {
          "indexed": true,
          "name": "_amountMinted",
          "type": "uint256"
        }
      ],
      "name": "Bought",
      "type": "event"
    },
    {
      "anonymous": false,
      "inputs": [
        {
          "indexed": true,
          "name": "_from",
          "type": "address"
        },
        {
          "indexed": true,
          "name": "_to",
          "type": "address"
        },
        {
          "indexed": false,
          "name": "_value",
          "type": "uint256"
        }
      ],
      "name": "Transfer",
      "type": "event"
    },
    {
      "constant": false,
      "inputs": [
        {
          "name": "costPerCoin",
          "type": "uint256"
        }
      ],
      "name": "setRate",
      "outputs": [],
      "payable": false,
      "stateMutability": "nonpayable",
      "type": "function"
    },
    {
      "constant": false,
      "inputs": [
        {
          "name": "receiver",
          "type": "address"
        },
        {
          "name": "amt",
          "type": "uint256"
        }
      ],
      "name": "createCoin",
      "outputs": [],
      "payable": false,
      "stateMutability": "nonpayable",
      "type": "function"
    },
    {
      "constant": false,
      "inputs": [
        {
          "name": "receiver",
          "type": "address"
        },
        {
          "name": "amount",
          "type": "uint256"
        }
      ],
      "name": "sendCoin",
      "outputs": [
        {
          "name": "sufficient",
          "type": "bool"
        }
      ],
      "payable": false,
      "stateMutability": "nonpayable",
      "type": "function"
    },
    {
      "constant": true,
      "inputs": [],
      "name": "getContractValue",
      "outputs": [
        {
          "name": "",
          "type": "uint256"
        }
      ],
      "payable": false,
      "stateMutability": "view",
      "type": "function"
    },
    {
      "constant": false,
      "inputs": [
        {
          "name": "amt",
          "type": "uint256"
        }
      ],
      "name": "withdrawlEther",
      "outputs": [],
      "payable": true,
      "stateMutability": "payable",
      "type": "function"
    },
    {
      "constant": true,
      "inputs": [
        {
          "name": "addr",
          "type": "address"
        }
      ],
      "name": "getBalanceInEth",
      "outputs": [
        {
          "name": "",
          "type": "uint256"
        }
      ],
      "payable": false,
      "stateMutability": "view",
      "type": "function"
    },
    {
      "constant": true,
      "inputs": [
        {
          "name": "addr",
          "type": "address"
        }
      ],
      "name": "getBalance",
      "outputs": [
        {
          "name": "",
          "type": "uint256"
        }
      ],
      "payable": false,
      "stateMutability": "view",
      "type": "function"
    }
  ],
  "bytecode": "0x60606040526064600155341561001457600080fd5b6127106000803373ffffffffffffffffffffffffffffffffffffffff1673ffffffffffffffffffffffffffffffffffffffff168152602001908152602001600020819055503373ffffffffffffffffffffffffffffffffffffffff16600260009054906101000a905050506108928061008e6000396000f30060606040526004361061008e576000357c0100000000000000000000000000000000000000000000000000000000900463ffffffff16806315849dcf146101c657806334fcf437146101ef578063595ad6c9146102125780637bd703e81461025457806390b98a11146102a1578063b533558a146102fb578063dc82697c14610313578063f8b2cb4f1461033c575b600073__ConvertLib____________________________6396e4ee3d6100b334610389565b6001546000604051602001526040518363ffffffff167c0100000000000000000000000000000000000000000000000000000000028152600401808381526020018281526020019250505060206040518083038186803b151561011557600080fd5b6102c65a03f4151561012657600080fd5b505050604051805190509050806000803373ffffffffffffffffffffffffffffffffffffffff1673ffffffffffffffffffffffffffffffffffffffff1681526020019081526020016000206000828254019250508190555080343373ffffffffffffffffffffffffffffffffffffffff167fa9a40dec7a304e5915d11358b968c1e8d365992abf20f82285d1df1b30c8e24c60405160405180910390a450005b34156101d157600080fd5b6101d96103a6565b6040518082815260200191505060405180910390f35b34156101fa57600080fd5b61021060048080359060200190919050506103ac565b005b341561021d57600080fd5b610252600480803573ffffffffffffffffffffffffffffffffffffffff16906020019091908035906020019091905050610412565b005b341561025f57600080fd5b61028b600480803573ffffffffffffffffffffffffffffffffffffffff16906020019091905050610502565b6040518082815260200191505060405180910390f35b34156102ac57600080fd5b6102e1600480803573ffffffffffffffffffffffffffffffffffffffff169060200190919080359060200190919050506105ab565b604051808215151515815260200191505060405180910390f35b6103116004808035906020019091905050610704565b005b341561031e57600080fd5b6103266107a3565b6040518082815260200191505060405180910390f35b341561034757600080fd5b610373600480803573ffffffffffffffffffffffffffffffffffffffff1690602001909190505061081e565b6040518082815260200191505060405180910390f35b6000670de0b6b3a76400008281151561039e57fe5b049050919050565b60015481565b600260009054906101000a900473ffffffffffffffffffffffffffffffffffffffff1673ffffffffffffffffffffffffffffffffffffffff163373ffffffffffffffffffffffffffffffffffffffff1614151561040857600080fd5b8060018190555050565b600260009054906101000a900473ffffffffffffffffffffffffffffffffffffffff1673ffffffffffffffffffffffffffffffffffffffff163373ffffffffffffffffffffffffffffffffffffffff1614151561046e57600080fd5b806000808473ffffffffffffffffffffffffffffffffffffffff1673ffffffffffffffffffffffffffffffffffffffff16815260200190815260200160002060008282540192505081905550808273ffffffffffffffffffffffffffffffffffffffff167f30385c845b448a36257a6a1716e6ad2e1bc2cbe333cde1e69fe849ad6511adfe60405160405180910390a35050565b600073__ConvertLib____________________________6396e4ee3d6105278461081e565b6001546000604051602001526040518363ffffffff167c0100000000000000000000000000000000000000000000000000000000028152600401808381526020018281526020019250505060206040518083038186803b151561058957600080fd5b6102c65a03f4151561059a57600080fd5b505050604051805190509050919050565b6000816000803373ffffffffffffffffffffffffffffffffffffffff1673ffffffffffffffffffffffffffffffffffffffff1681526020019081526020016000205410156105fc57600090506106fe565b816000803373ffffffffffffffffffffffffffffffffffffffff1673ffffffffffffffffffffffffffffffffffffffff16815260200190815260200160002060008282540392505081905550816000808573ffffffffffffffffffffffffffffffffffffffff1673ffffffffffffffffffffffffffffffffffffffff168152602001908152602001600020600082825401925050819055508273ffffffffffffffffffffffffffffffffffffffff163373ffffffffffffffffffffffffffffffffffffffff167fddf252ad1be2c89b69c2b068fc378daa952ba7f163c4a11628f55a4df523b3ef846040518082815260200191505060405180910390a3600190505b92915050565b600260009054906101000a900473ffffffffffffffffffffffffffffffffffffffff1673ffffffffffffffffffffffffffffffffffffffff163373ffffffffffffffffffffffffffffffffffffffff1614151561076057600080fd5b3373ffffffffffffffffffffffffffffffffffffffff166108fc829081150290604051600060405180830381858888f1935050505015156107a057600080fd5b50565b6000600260009054906101000a900473ffffffffffffffffffffffffffffffffffffffff1673ffffffffffffffffffffffffffffffffffffffff163373ffffffffffffffffffffffffffffffffffffffff1614151561080157600080fd5b3073ffffffffffffffffffffffffffffffffffffffff1631905090565b60008060008373ffffffffffffffffffffffffffffffffffffffff1673ffffffffffffffffffffffffffffffffffffffff1681526020019081526020016000205490509190505600a165627a7a7230582068f3456ec8be068785d1b7f21363293b8d8f6711d9ef596df77015c95f96db7e0029",
  "source": "pragma solidity ^0.4.18;\r\n\r\nimport \"./ConvertLib.sol\";\r\n\r\n// This is just a simple example of a coin-like contract.\r\n// It is not standards compatible and cannot be expected to talk to other\r\n// coin/token contracts. If you want to create a standards-compliant\r\n// token, see: https://github.com/ConsenSys/Tokens. Cheers!\r\n\r\ncontract MetaCoin {\r\n\tmapping (address => uint) balances;\r\n\tuint public costPerMetaCoin = 100;\r\n\taddress owner;\r\n\r\n\tevent Minted(address indexed _to, uint indexed _amount);\r\n\tevent Bought(address indexed _buyer, uint indexed _amountSent, uint indexed _amountMinted);\r\n\tevent Transfer(address indexed _from, address indexed _to, uint256 _value);\r\n\t\r\n\tmodifier onlyOwner() {\r\n\t\trequire(msg.sender == owner);\r\n\t\t_;\r\n\t}\r\n\r\n\tfunction MetaCoin() public {\r\n\t\tbalances[msg.sender] = 10000;\r\n\t\towner == msg.sender;\r\n\t}\r\n\r\n\tfunction setRate(uint costPerCoin) public onlyOwner {\r\n\t\tcostPerMetaCoin = costPerCoin;\r\n\t}\r\n\r\n\tfunction createCoin(address receiver, uint amt) public onlyOwner {\r\n\t\tbalances[receiver] += amt;\r\n\t\tMinted(receiver, amt);\r\n\t}\r\n\tfunction sendCoin(address receiver, uint amount) public returns(bool sufficient) {\r\n\t\tif (balances[msg.sender] < amount) {return false;}\r\n\t\tbalances[msg.sender] -= amount;\r\n\t\tbalances[receiver] += amount;\r\n\t\tTransfer(msg.sender, receiver, amount);\r\n\t\treturn true;\r\n\t}\r\n\r\n\tfunction() public payable {\r\n\t\tuint boughtAmount = ConvertLib.convert(weiToEth(msg.value), costPerMetaCoin);\r\n\t\tbalances[msg.sender] += boughtAmount;\r\n\t\tBought(msg.sender, msg.value,  boughtAmount);\r\n\t}\r\n\r\n\tfunction weiToEth(uint val) private pure returns (uint) {\r\n\t\treturn val / 1 ether;\r\n\t}\r\n\r\n\tfunction getContractValue() public view onlyOwner returns (uint) {\r\n\t\treturn this.balance;\r\n\t}\r\n\r\n\tfunction withdrawlEther(uint amt) public payable onlyOwner {\r\n\t\tmsg.sender.transfer(amt);\r\n\t}\r\n\r\n\tfunction getBalanceInEth(address addr) public view returns(uint) {\r\n\t\treturn ConvertLib.convert(getBalance(addr),costPerMetaCoin);\r\n\t}\r\n\r\n\tfunction getBalance(address addr) public view returns(uint) {\r\n\t\treturn balances[addr];\r\n\t}\r\n}\r\n",
  "sourcePath": "D:\\Data\\Dev\\March Madness\\March Madness\\truffle\\contracts\\MetaCoin.sol",
  "compiler": {
    "name": "solc",
    "version": "0.4.19+commit.c4cbbb05.Emscripten.clang"
  },
  "schemaVersion": "2.0.0",
  "updatedAt": "2018-03-07T02:02:02.199Z"
}